:020000040800F2
:10000000F8070020E5030008D1140008D314000805
:10001000D7140008DB140008DF14000800000000FB
:10002000000000000000000000000000E3140008D1
:10003000E514000800000000E7140008E9140008B7
:10004000FF030008FF030008FF030008FF03000888
:10005000FF030008FF0300089D100008FF030008CD
:1000600011100008FF030008FF030008FF03000849
:10007000FF030008FF030008FF030008FF03000858
:10008000FF030008FF030008FF030008FF03000848
:10009000FF030008FF030008FF030008FF03000838
:1000A000FF030008FF030008FF030008FF03000828
:1000B000FF03000851120008C9120008FF030008DE
:1000C000FF030008FF030008FF030008FF03000808
:1000D000FF030008FF030008FF030008FF030008F8
:1000E00061110008FF030008FF030008FF03000878
:1000F000FF030008FF030008FF030008FF030008D8
:10010000FF030008FF030008FF030008FF030008C7
:10011000FF030008FF030008FF030008FF030008B7
:10012000FF030008FF030008FF030008FF030008A7
:1001300000F002F800F03CF80AA090E8000C8244BD
:100140008344AAF10107DA4501D100F031F8AFF29A
:10015000090EBAE80F0013F0010F18BFFB1A43F0A5
:1001600001031847E467000004680000103A24BF48
:1001700078C878C1FAD8520724BF30C830C144BF0C
:1001800004680C607047000000230024002500264E
:10019000103A28BF78C1FBD8520728BF30C148BFEA
:1001A0000B6070471FB504F060F91FBD10B510BD9E
:1001B00004F07AF91146FFF7F5FF01F00FF904F0AA
:1001C00098F903B4FFF7F2FF03BC04F099F90000BB
:1001D0000B49D1F800C04A685CF8043B1068184429
:1001E00042F8040B8C4528BFA1F1DC0C8A4228BFE1
:1001F000A1F1DC02C1F800C04A6020F00040704765
:100200008C0100200CB50020019000906C48006823
:1002100040F480306A49086000BF6948006800F413
:10022000003000900198401C0190009818B9019886
:10023000B0F5A06FF1D16248006800F4003010B151
:100240000120009001E0002000900098012843D197
:100250005C48006840F010005A4908600846006891
:1002600020F0030008600846006840F002000860C3
:10027000534840685249486008464068486008460C
:10028000406840F4806048600846406820F47C1074
:1002900048600846406840F4E81048600846006836
:1002A00040F08070086000BF4548006800F00070B2
:1002B0000028F9D04248406820F0030040494860D7
:1002C0000846406840F00200486000BF3C48406873
:1002D00000F00C000828F9D10CBD10B5FFF792FF13
:1002E00010BD10B53648006840F001003449086080
:1002F000084640683449084031494860084600686B
:10030000324908402E4908600846006820F48020E1
:1003100008600846406820F4FE0048604FF41F0063
:100320008860FFF7DAFF4FF000602949086010BDD0
:1003300010B5002100200022214B5B6803F00C0166
:1003400021B1042906D0082928D107E0214B224CED
:10035000236027E01F4B204C236023E0184B5B6891
:1003600003F47010164B5B6803F48032022303EB36
:10037000904022B9194B4343174C23600DE0104BBA
:100380005B6803F4003323B1144B4343124C2360E6
:1003900003E0104B4343104C236003E00D4B0E4C25
:1003A000236000BF00BF064B5B68C3F303130C4C14
:1003B000E15C094B1B68CB40074C236010BD00007B
:1003C00000100240002002400000FFF8FFFFF6FE90
:1003D00008ED00E000127A000000002000093D0056
:1003E000040000200948804709480047FEE7FEE76F
:1003F000FEE7FEE7FEE7FEE7FEE7FEE7FEE7FEE7D5
:1004000004480549054A064B70470000E30200080E
:1004100031010008F8010020F8070020F80300204F
:10042000F80300200E48806940F008000C498861FC
:100430000C48006820F00F000A4908600846006870
:1004400040F00300086070474FF4807005490C319C
:10045000086070474FF4807002491031086070479F
:1004600000100240040C01403748806940F004004D
:10047000354988610846806940F040008861084637
:10048000806940F0040088613048006820F00F0067
:100490002E4908600846006840F0080008602C48B3
:1004A000006820F470202A4908600846006840F47B
:1004B000002008600846006820F470400860084684
:1004C000006840F4004008600846006820F470604E
:1004D00008600846006840F4006008601C4810305E
:1004E000006840F010001A491031086008460068A2
:1004F00040F0080008600846006840F0040008600A
:1005000012481430006840F00100104914310860AE
:1005100070470E480830006800F0010070470C4832
:1005200008300068012121EA10107047084808309F
:100530000068012121EAD0007047054808300068B2
:10054000012121EA9000704700100240000801409C
:10055000001801401E48806940F008001C4988616D
:100560000846806940F0400088611A48006820F41D
:100570007000184908600846006840F440100860A0
:100580001548006820F470001349086008460068A8
:1005900040F44010086020200E49103108600E49D8
:1005A00010310860704720200A49143108607047F4
:1005B0002020084910310860704720200649143176
:1005C000086070472020044910310860704700001F
:1005D00000100240000C01400018014007210020DB
:1005E000234A5268234B1A40214B5A601A4612681C
:1005F000214B1A401E4B1A601A46126842F4803290
:100600001A6000BF1A4A1268520C002AFAD04FF43E
:100610004062174B5A601A46526842EA81425A6059
:100620001A46526842F480325A60144A126842F004
:100630003202124B1A600E4A126842F080720C4B62
:100640001A6000BF0A4A1268520E002AFAD0084AFD
:10065000526842F00202064B5A6005E0044A5268B2
:10066000C2F3870000F003000228F7D170470000B2
:10067000001002400000FFF8FFFFF6FE00200240DD
:100680002DE9F05F05460E46300105F0B5FB8146C9
:100690006B4905FB01F005F0AFFB8246494605F0CA
:1006A000C9FA0746384605F087FB84B2204605F0B4
:1006B000A3FB8346394605F07FFC82464FF0834119
:1006C00005F0AEFB814605F077FB80464FF6FF70E4
:1006D00000EA041404EB080084B25A48806940F030
:1006E0000400584988610846806940F48040886168
:1006F0005548006820F47F60534908600846006848
:1007000040F40B6008604F48C06840F480404D4999
:10071000C8600846C06820F48040C8604B48048028
:10072000001D008842F2080108434849091D08805D
:10073000BDE8F09F2DE9F05F05460E46300105F05B
:100740005BFB81463E4905FB01F005F055FB824607
:10075000494605F06FFA0746384605F02DFB84B28E
:10076000204605F049FB8346394605F025FC8246C4
:100770004FF0834105F054FB814605F01DFB804698
:100780004FF6FF7000EA041404EB080084B22D4811
:10079000806940F004002B4988610846C06940F434
:1007A0000030C8612848001F006820F47F402649B7
:1007B000091F08600846006840F40B4008602148A3
:1007C000006940F400301F4908610846006920F4C0
:1007D000003008611E480480001D008842F20801B4
:1007E00008431B49091D0880BDE8F09F10B502466B
:1007F00000201FE0012A0CD1144B083B1B8803F09A
:10080000800333B10B5C114C241F2380431CD8B2EE
:100810000DE0022A0BD10E4B083B1B8803F080032E
:100820002BB10B5C0A4C241F2380431CD8B2FF2839
:1008300000D102E00B5C002BDCD100BF10BD00003A
:1008400040420F00001002400408014008380140F7
:1008500008440040FE4908807047FD49891C088013
:10086000704700B50120FFF7F5FF1120FFF7F2FFF9
:100870003A20FFF7EFFF5520FFF7EFFF2920FFF7A2
:10088000E9FF3620FFF7E6FFCA20FFF7E6FF00BDCD
:1008900000B5F048406940F48070EE494861084670
:1008A000806940F0080088610846806940F02000B7
:1008B00088610846806940F0400088610846806988
:1008C00040F480708861E448006820F00F00E2493D
:1008D00008600846006840F003000860DF480068D0
:1008E000DF490840DD49086008460068DD490843E3
:1008F000DA490860081F006800F0FF20091F08603F
:100900000846006840F0BB100860D7480068002027
:10091000D54908600846006840F0BB300860081FF1
:10092000006820F07040091F08600846006840F029
:1009300030400860CD48406820F47020CB494860C2
:100940000846406840F4302048600846006820F0BF
:100950000F0008600846006840F00B0008600020A7
:100960004FF020418861C861C14908604FF02040C4
:10097000806940F480504FF02041886108468069CA
:1009800040F4804088610846806940F0100088612A
:100990000846C069C8610846C06940F00100C861E6
:1009A0000846C06940F47060C861B1480068C1F889
:1009B0001C01AF480068C1F81C010846D0F81C01B2
:1009C00040F44070C1F81C010846806940F0010005
:1009D0008861FFF746FF01209F491031086000BD84
:1009E00010B503460C462A20FFF734FF1812FFF714
:1009F00034FFD8B2FFF731FF0120FFF72EFF3F2071
:100A0000FFF72BFF2B20FFF725FF2012FFF725FF15
:100A1000E0B2FFF722FF0120FFF71FFFDF20FFF703
:100A20001CFF2C20FFF716FF1046FFF716FF10BD26
:100A3000F0B507460C46059D00262A20FFF70AFF61
:100A40002012FFF70AFFE0B2FFF707FFA118491EC7
:100A5000C1F30F20FFF701FFA118491EC8B2FFF72D
:100A6000FCFE2B20FFF7F6FE1812FFF7F6FED8B2B9
:100A7000FFF7F3FE5919491EC1F30F20FFF7EDFEF2
:100A80005919491EC8B2FFF7E8FE2C20FFF7E2FE15
:100A900000BF03E03846FFF7E0FE761C02FB05F0DE
:100AA000B042F7D8F0BDF8B507460E4615461C46CD
:100AB000092C00DDF8BD012C02D0042C02D100E08D
:100AC00000BF0CE00A20009005F1960083B206F109
:100AD0000A0081B23C223846FFF7AAFF00BF00BFE0
:100AE000052C02D0062C02D100E000BF0CE0412012
:100AF000009005F1550083B206F1460081B20A224A
:100B00003846FFF795FF00BF00BF022C0BD04120F5
:100B1000009005F10A0083B206F1460081B20A2274
:100B20003846FFF785FF012C04D0042C03D0072C96
:100B300003D101E000BF00BF0AE00A20009006F1E7
:100B40000A0081B22B463C223846FFF771FF00BFF6
:100B500000BF34B1022C05D0062C04D0082C0ED1D5
:100B600002E000BF00BF00BF4120009005F10A0075
:100B700083B20A2231463846FFF75AFF00BF00BF52
:100B8000012C06D0022C05D0032C04D0072C04D154
:100B900002E000BF00BF00BF0AE04120009005F165
:100BA000550083B20A2231463846FFF741FF00BFA5
:100BB00000BF24B1012C03D0072C03D101E000BFFA
:100BC00000BF0CE00A20009005F14B0083B206F153
:100BD0000A0081B23C223846FFF72AFF00BF00BF5F
:100BE00000BF67E72DE9F04F04460D4616469A46CA
:100BF000DDF8249010224FF0080B202E01DB7F2E11
:100C000001DDBDE8F08FA6F12000C6B22A20FFF773
:100C100021FE2012FFF721FEE0B2FFF71EFE04EBDB
:100C20000B01491EC1F30F20FFF717FE04EB0B0168
:100C3000491EC8B2FFF711FE2B20FFF70BFE28124A
:100C4000FFF70BFEE8B2FFF708FEA918491E11E0F6
:100C5000FE07006C00100240000C0140041401402B
:100C600000F0FF00BB0B00BB041801400020014056
:100C70001C0100A0C1F30F20FFF7EFFDA918491ECA
:100C8000C8B2FFF7EAFD2C20FFF7E4FD002327E0C0
:100C90004FF000081DE0002715E0B14800EB0610FA
:100CA000012101EB4701C91A405C40FA08F000F04D
:100CB000010018B15046FFF7D0FD02E04846FFF7AB
:100CC000CCFD781CC7B25F45E7DB08F1010000F0FE
:100CD000FF0802EBD271B8EB610FDCDB581CC3B22A
:100CE000D11702EB5171B3EBE10FD1DB00BF88E705
:100CF0002DE9F04F04460D4617469A46DDF824903C
:100D000010229346052F01DDBDE8F08F2A20FFF762
:100D1000A1FD2012FFF7A1FDE0B2FFF79EFD04EB5D
:100D20000B01491EC1F30F20FFF797FD04EB0B01E8
:100D3000491EC8B2FFF791FD2B20FFF78BFD28124B
:100D4000FFF78BFDE8B2FFF788FDA918491EC1F334
:100D50000F20FFF782FDA918491EC8B2FFF77DFDDD
:100D60002C20FFF777FD002327E04FF000081DE05F
:100D7000002615E07B4800EB4710012101EB4601FE
:100D8000C91A405C40FA08F000F0010018B1504662
:100D9000FFF763FD02E04846FFF75FFD701CC6B237
:100DA0005E45E7DB08F1010000F0FF0802EBD271BD
:100DB000B8EB610FDCDB581CC3B2D11702EB5171E9
:100DC000B3EBE10FD1DB00BF9EE72DE9F84F814681
:100DD0008A4614469B46102708200090202C01DBF1
:100DE0007F2C01DDBDE8F88FA4F12000C4B20025FE
:100DF0002CE04FF0000822E0002619E0584800EBF4
:100E00000410012101EB4601491B405C40FA08F047
:100E100000F0010050B1082202FB05A2424491B249
:100E200009EB060290B25A46FFF7DAFD701CC6B213
:100E300000988642E2DB08F1010000F0FF0807EBB2
:100E4000D771B8EB610FD7DB681CC5B2F91707EB98
:100E50005171B5EBE10FCCDB00BFC3E72DE9F84FD3
:100E600081468A4690469B46102610200090B8F195
:100E7000050F01DDBDE8F88F002428E000271FE002
:100E8000002518E0374800EB4810012101EB45012F
:100E9000091B405C384100F0010050B1082202FB00
:100EA00004A23A4491B209EB050290B25A46FFF708
:100EB00097FD681CC5B200988542E3DB781CC7B279
:100EC00006EBD671B7EB610FDADB601CC4B2F11729
:100ED00006EB5171B4EBE10FD0DB00BFCAE72DE99F
:100EE000F84F81468A4690469B4610261020009077
:100EF000B8F1050F01DDBDE8F88F002428E00027D8
:100F00001FE0002518E0184800EB4810012101EB14
:100F10004501091B405C384100F0010050B1082236
:100F200002FB04A23A4491B209EB050290B25A4680
:100F3000FFF756FD681CC5B200988542E3DB781CBC
:100F4000C7B206EBD671B7EB610FDADB601CC4B237
:100F5000F11706EB5171B4EBE10FD0DB00BFCAE72C
:100F6000A66100089667000856680008014601F06F
:100F7000070212028D4B18684FF6FF03184040F429
:100F8000BE008A4B186070478948806940F0400075
:100F9000874988618748006820F470608549086047
:100FA0000846006840F40060086082480C30006821
:100FB00040F004007F490C3108607D48806940F0B2
:100FC00001007B4988617C48806820F470607A4920
:100FD00088600846806840F48060886077480068D0
:100FE00040F004007549086074480C30006840F017
:100FF000040072490C310860652171480170714824
:10100000006840F480704FF0E021C1F800017047A3
:1010100004206A491431086070476548806940F0CF
:101020000400634988616848006820F00F00664941
:1010300008600846006840F00800086062480C300C
:10104000006861490C3108605948806940F001002E
:10105000574988615848806820F00F0056498860D9
:101060000846806888605548006840F00100534990
:10107000086052480C30006840F001004F490C31C4
:10108000086075214E48801E01704E48006840F08F
:1010900040004FF0E021C1F80001704710B54B4807
:1010A0000068012814D14A480068002810DD49A1D1
:1010B0000220FFF79BFB02F030FC4AA10220FFF761
:1010C00095FB43480068401E4149086001F05CFF01
:1010D00001203A491431086010BD3548806940F05C
:1010E0001000334988614348406820F470604149EA
:1010F00048600846406840F4006048600846C068A0
:1011000040F00400C8602A48806940F00100284986
:1011100088612948006920F470412748016100690D
:1011200040F40051244801612448006840F4006004
:101130002249086021480C30006840F400601F49D3
:101140000C31086075211E48203001701D48001DBB
:10115000006840F480704FF0E021C1F8040170474E
:1011600010B525480078C0B92448006880B12348EC
:10117000006809280CD21F488068C0F380201F49EE
:101180000978491E88401E49096808431C490860BF
:101190001A480068401C194908600A2000F0ACF9A0
:1011A0004FF4006005491431086010BD0CED00E0FB
:1011B00000100240001801400000014000040140FE
:1011C00008E400E000E100E00008014030000020F9
:1011D0003C0000202047616D652053746F7070657E
:1011E000642E00002047616D6520526573756D6542
:1011F000642E000000100140200000201C00002090
:10120000180000206C4AD26942F002026A4BDA618F
:101210006A4A1080121F1180684A203A128842F0F0
:101220000102664B203B1A80644A2C3A128842F035
:101230000102624B2C3B1A804523614A1370614ABC
:10124000126842F000524FF0E023C3F800217047CB
:101250005A481C38008800F0010028B15A4800683C
:1012600080F020005849086054481C38008820F05D
:10127000010052491C39088070474F4AD26942F038
:1012800004024D4BDA61514A1080121F11804F4AFF
:10129000203A128842F001024C4B203B1A804B4A04
:1012A0002C3A128842F00102484B2C3B1A8045230D
:1012B000434A521C1370434A126842F080424FF076
:1012C000E023C3F80021704740481C38008800F034
:1012D000010028B13E48006880F020003C490860C9
:1012E0003A481C38008820F0010038491C39088031
:1012F000704720203449091D0860704700B5FFF78A
:10130000F8FF00BD00204FF0E0210861314848613E
:101310000846006940F0030008617047264A926958
:1013200042F00802244B9A61274A0C3A126822F4D0
:101330007002254B0C3B1A601A46126842F43002C8
:101340001A601D4A926942F001021B4B9A61224ABF
:10135000526822F44062204B5A601A46526842F4A6
:1013600000625A60144AD26942F00202124BDA61FA
:10137000124A1080121F1180104A143A128842F447
:10138000E0420E4B143B1A801A46128842F4006267
:101390001A800A4A0C3A128842F01002074B0C3BA2
:1013A0001A808022054B2C3B1A801A46128842F084
:1013B00001021A8070470000001002402C04004017
:1013C0001DE400E000E100E00C0C01402C080040AE
:1013D0000C1801408F5F01000000014002F01EFF69
:1013E0005DE02F4800780A2858DB00202C4908705F
:1013F0002C480068032190FBF1F201FB1200022847
:1014000005D1FFF7D5F8FFF7DDF8FFF723F82648F9
:10141000006890B92348006828B924A10220FFF78A
:10142000E5F900F031F91F49086800EBD071491067
:10143000A0EB410109B902F0F1FC02F08DFB00B113
:101440002DE019480068012814D116480068642866
:1014500008DB0020134908601849086002F056FBB9
:1014600000B11CE001F0CAFE02F01EFD01F033FEE7
:1014700002F0E0FD0C48006802280AD10948006823
:1014800028B90FA10220FFF7B1F901F0B9FF02F06E
:10149000AFFD04480068401C0249086000BFA0E797
:1014A000280000202C0000203000002047616D65DE
:1014B000205374617274202D3E0000005000002003
:1014C0002047616D65204F76657221200000000085
:1014D000704700BFFEE700BFFEE700BFFEE700BFAA
:1014E000FEE770477047704702480078401C01498A
:1014F0000870704728000020002100E0491C81424C
:10150000FCD370470146012203E00A2091FBF0F171
:10151000521C081E01DB034600E043420A2BF4DAAA
:10152000002901DB104670475042FCE70146081EC7
:1015300001DB024600E0424211460A2902DA4FF07E
:10154000FF30704702E00A2091FBF0F10A29FADA35
:101550000846F6E7034632B1012A06D0022A06D031
:10156000032A0CD106E058187047581AFCE703FB11
:1015700001F0F9E793FBF1F001FB1030F4E74FF0D5
:10158000FF30F1E710B5FEF723FE32490968491C28
:1015900001EB8101890090FBF1F201FB12002E4961
:1015A0000860FEF715FE2B490968491C01EB810113
:1015B000890090FBF1F201FB120028490860FEF758
:1015C00007FE24490968891C90FBF1F201FB120017
:1015D000234908601F48006820B1012803D0022871
:1015E00033D10BE000BF1E4802681C4801681A484E
:1015F0000068FFF7AFFF1B49086027E0FEF7E8FD32
:10160000142190FBF1F201FB120017490860FEF76C
:10161000DFFD10490968891C90FBF1F201FB120003
:10162000124908600E4802680F4801680A480068BD
:10163000FFF790FF04460D480268084801682046FD
:10164000FFF788FF0749086000E010BD00BF00BF3A
:10165000FBE700003400002058000020600000205C
:10166000640000206C0000205C0000206800002066
:1016700008B54FF4A0700023F022194600904FF6F1
:10168000FF70FFF7D5F908BD10B5FFF7F1FFF74878
:1016900003885122FC213420FFF797FBF34803888D
:1016A0007522FC213C20FFF790FBF048038869225B
:1016B000FC214420FFF789FBEC4803886322FC21CE
:1016C0004C20FFF782FBE94803886B22FC21542061
:1016D000FFF77BFBE54803882022FC215C20FFF715
:1016E00074FBE24803884322FC216420FFF76DFB72
:1016F000DE4803886122FC216C20FFF766FBDB4893
:1017000003886C22FC217420FFF75FFBD748038815
:101710006322FC217C20FFF758FBD4480388752204
:10172000FC218420FFF751FBD04803886C22FC2168
:101730008C20FFF74AFBCD4803886122FC219420CE
:10174000FFF743FBC94803887422FC219C20FFF764
:101750003CFBC64803886922FC21A420FFF735FB27
:10176000C24803886F22FC21AC20FFF72EFBBF4844
:1017700003886E22FC21B420FFF727FBBB480388B7
:101780002022FC21BC20FFF720FBB8480388472219
:10179000EC213820FFF719FBB44803886122EC21C3
:1017A0004020FFF712FBB14803886D22EC2148204E
:1017B000FFF70BFBAD4803886522EC215020FFF7B3
:1017C00004FBAA4803882022EC215820FFF7FDFAE9
:1017D000A64803887722EC216020FFF7F6FAA34899
:1017E00003886922EC216820FFF7EFFA9F480388FD
:1017F0007422EC217020FFF7E8FA9C4803886822E5
:10180000EC217820FFF7E1FA984803882022EC21A8
:101810008020FFF7DAFA954803885322EC218820CC
:10182000FFF7D3FA914803886B22EC219020FFF751
:10183000CCFA8E4803886922EC219820FFF7C5FA7C
:101840008A4803886C22EC21A020FFF7BEFA874863
:1018500003886C22EC21A820FFF7B7FA834803889D
:101860007322EC21B020FFF7B0FA8048038853229E
:10187000C8212420FFF7A9FA7C4803886522C821E3
:101880002C20FFF7A2FA794803886C22C821342063
:10189000FFF79BFA754803886522C8213C20FFF7B3
:1018A00094FA724803886322C8214420FFF78DFA16
:1018B0006E4803887422C8214C20FFF786FA6B48D3
:1018C00003882022C8215420FFF77FFA6748038845
:1018D0004722C8215C20FFF778FA64480388612218
:1018E000C8216420FFF771FA604803886D22C8217F
:1018F0006C20FFF76AFA5D4803886522C8217420CE
:10190000FFF763FA594803882022C8217C20FFF79B
:101910005CFA564803884422C8218420FFF755FA10
:10192000524803886922C8218C20FFF74EFA4F489D
:1019300003886622C8219420FFF747FA4B480388A2
:101940006622C8219C20FFF740FA48480388692294
:10195000C821A420FFF739FA444803886322C8212C
:10196000AC20FFF732FA414803887522C821B42021
:10197000FFF72BFA3D4803886C22C821BC20FFF7F3
:1019800024FA3A4803887422C821C420FFF71DFABC
:10199000364803887922C821CC20FFF716FA33484D
:1019A00003885B22B0213C20FFF70FFA3048006823
:1019B00008B92A2000E0202002462C480388B021E4
:1019C0004420FFF702FA294803885D22B0214C2009
:1019D000FFF7FBF9254803882022B0215420FFF7A8
:1019E000F4F9224803884222B0215C20FFF7EDF988
:1019F0001E4803886522B0216420FFF7E6F91B48E2
:101A000003886722B0216C20FFF7DFF917480388AD
:101A10006922B0217420FFF7D8F9144803886E2298
:101A2000B0217C20FFF7D1F9104803886E22B02145
:101A30008420FFF7CAF90D4803886522B0218C2065
:101A4000FFF7C3F9094803887222B0219420FFF7F9
:101A5000BCF9064803885B22A0213C20FFF7B5F9BA
:101A600003480068012805D12A2004E07000002006
:101A70003400002020200246FE480388A021442094
:101A8000FFF7A3F9FB4803885D22A0214C20FFF754
:101A90009CF9F84803882022A0215420FFF795F9EB
:101AA000F44803884E22A0215C20FFF78EF9F1480C
:101AB00003886F22A0216420FFF787F9ED4803888F
:101AC0007222A0216C20FFF780F9EA4803886D227A
:101AD000A0217420FFF779F9E64803886122A0214C
:101AE0007C20FFF772F9E34803886C22A021842050
:101AF000FFF76BF9DF4803885B2290213C20FFF75A
:101B000064F9DD480068022801D12A2000E0202085
:101B10000246D848038890214420FFF756F9D5485B
:101B200003885D2290214C20FFF74FF9D1480388AC
:101B3000202290215420FFF748F9CE4803884522FF
:101B400090215C20FFF741F9CA4803887822902150
:101B50006420FFF73AF9C7480388702290216C206F
:101B6000FFF733F9C3480388652290217420FFF7FB
:101B70002CF9C0480388722290217C20FFF725F9B8
:101B8000BC480388742290218420FFF71EF9B948CD
:101B90000388002274218820FFF760F9B548038884
:101BA000012274219820FFF759F9B24803880222D4
:101BB0007421A820FFF752F9AE480388032264215C
:101BC0008820FFF74BF9AB48038804226421982052
:101BD000FFF744F9A748038805226421A820FFF7EE
:101BE0003DF9A4480388312264213820FFF7EDF83D
:101BF000A0480388312264214020FFF7E6F89D4881
:101C00000388352264214820FFF7DFF899480388CC
:101C1000352264215020FFF7D8F8964803883122F6
:101C200064215820FFF7D1F89248038832226421BA
:101C30006020FFF7CAF88F480388372264216820A4
:101C4000FFF7C3F88B480388342264217020FFF724
:101C5000BCF888480388352264217820FFF7B5F85E
:101C600084480388372264218020FFF7AEF881483A
:101C70000388312274213820FFF7A7F87D480388B4
:101C8000312274214020FFF7A0F87A4803883522DA
:101C900074214820FFF799F876480388352274218B
:101CA0005020FFF792F8734803883122742158209E
:101CB000FFF78BF86F480388322274216020FFF70A
:101CC00084F86C480388372274216820FFF77DF878
:101CD00068480388302274217020FFF776F8654841
:101CE0000388362274217820FFF76FF86148038853
:101CF000392274218020FFF768F85E4803885B2250
:101D000028212E20FFF761F85A4803883C22282119
:101D10003620FFF75AF8574803883A2228213E20F8
:101D2000FFF753F853480388522228214620FFF733
:101D30004CF850480388752228214E20FFF745F8BB
:101D40004C4803886C2228215620FFF73EF849486A
:101D50000388652228215E20FFF737F8454803886D
:101D60005D2228216620FFF730F8424803885B2275
:101D700028218220FFF729F83E4803883E222821A7
:101D80008A20FFF722F83B4803883A222821922034
:101D9000FFF71BF837480388532228219A20FFF7C2
:101DA00014F83448038874222821A220FFF70DF884
:101DB0003048038861222821AA20FFF706F82D4821
:101DC000038872222821B220FEF7FFFF29480388EA
:101DD00074222821BA20FEF7F8FF264803885D22E6
:101DE0002821C220FEF7F1FF10BD10B5FFF740FC1F
:101DF0002048038847224FF490715020FEF7E5FFFA
:101E00001C48038861224FF490715820FEF7DDFFD3
:101E1000184803886D224FF490716020FEF7D5FFBB
:101E20001448038865224FF490716820FEF7CDFFB7
:101E30001048038820224FF490717020FEF7C5FFF0
:101E40000C48038852224FF490717820FEF7BDFFB2
:101E50000848038875224FF490718020FEF7B5FF83
:101E6000044803886C224FF490718820FEF7ADFF80
:101E7000004803E070000020340000200388652241
:101E80004FF490719020FEF7A0FFFE4803883A229D
:101E90004FF490719820FEF798FFFA4803882D229E
:101EA0004FF484711420FEF790FFF6480388202237
:101EB0004FF484711C20FEF788FFF2480388432208
:101EC0004FF484712420FEF780FFEE4803886122DE
:101ED0004FF484712C20FEF778FFEA4803886C22C7
:101EE0004FF484713420FEF770FFE64803886322C4
:101EF0004FF484713C20FEF768FFE24803887522A6
:101F00004FF484714420FEF760FFDE4803886C22A2
:101F10004FF484714C20FEF758FFDA4803886122A1
:101F20004FF484715420FEF750FFD6480388742282
:101F30004FF484715C20FEF748FFD2480388652285
:101F40004FF484716420FEF740FFCE4803882022BE
:101F50004FF484716C20FEF738FFCA480388712261
:101F60004FF484717420FEF730FFC6480388752251
:101F70004FF484717C20FEF728FFC2480388652255
:101F80004FF484718420FEF720FFBE48038873223B
:101F90004FF484718C20FEF718FFBA48038874222E
:101FA0004FF484719420FEF710FFB648038869222D
:101FB0004FF484719C20FEF708FFB24803886F221B
:101FC0004FF48471A420FEF700FFAE4803886E2210
:101FD0004FF48471AC20FEF7F8FEAA480388732200
:101FE0004FF48471B420FEF7F0FEA6480388642203
:101FF000F8212420FEF7E9FEA24803886922F8218F
:102000002C20FEF7E2FE9F4803887322F82134203B
:10201000FEF7DBFE9B4803887022F8213C20FEF788
:10202000D4FE984803886C22F8214420FEF7CDFEA8
:10203000944803886122F8214C20FEF7C6FE91489F
:1020400003887922F8215420FEF7BFFE8D480388CB
:102050006522F8215C20FEF7B8FE8A4803886422D6
:10206000F8211046FEF7B1FE864803882C22F8219D
:102070006C20FEF7AAFE834803882022F8217420F2
:10208000FEF7A3FE7F4803886D22F8217C20FEF72F
:102090009CFE7C4803886F22F8218420FEF795FE81
:1020A000784803887622F8218C20FEF78EFE75484A
:1020B00003886522F8219420FEF787FE7148038883
:1020C0002022F8219C20FEF780FE6E4803887022B3
:1020D000F821A420FEF779FE6A4803886C22F821D3
:1020E000AC20FEF772FE674803886122F821B42015
:1020F000FEF76BFE634803887922F821BC20FEF7C7
:1021000064FE604803886522F821C420FEF75DFE66
:102110005C4803887222F821CC20FEF756FE59480D
:1021200003886922E8212420FEF74FFE55480388E2
:102130006322E8212C20FEF748FE524803886F22D4
:10214000E8213420FEF741FE4E4803886E22E82144
:102150003C20FEF73AFE4B4803882022E821442029
:10216000FEF733FE474803886122E8214C20FEF742
:102170002CFE444803886E22E8215420FEF725FEF9
:10218000404803886422E8215C20FEF71EFE3D489B
:1021900003882022E8216420FEF717FE39480388CF
:1021A0006422E8216C20FEF710FE36480388652281
:1021B000E8217420FEF709FE324803887322E821E3
:1021C0007C20FEF702FE2F4803887422E821842039
:1021D000FEF7FBFD2B4803887222E8218C20FEF7D6
:1021E000F4FD284803886F22E8219420FEF7EDFDD6
:1021F000244803887922E8219C20FEF7E6FD214847
:1022000003882022E821A420FEF7DFFD1D48038873
:102210006222E821AC20FEF7D8FD1A4803886C2220
:10222000E821B420FEF7D1FD164803886F22E8218B
:10223000BC20FEF7CAFD134803886322E821C420AE
:10224000FEF7C3FD0F4803886B22E821CC20FEF780
:10225000BCFD0C4803887322E821D420FEF7B5FDAD
:10226000084803882D22D0211420FEF7AEFD054832
:1022700003882022D0211C20FEF7A7FD01480388F7
:10228000422201E070000020D0212420FEF79DFDB5
:10229000FE4803886522D0212C20FEF796FDFB48DE
:1022A00003886722D0213420FEF78FFDF74803888A
:1022B0006922D0213C20FEF788FDF44803886E2275
:1022C000D0214420FEF781FDF04803886E22D02102
:1022D0004C20FEF77AFDED4803886522D02154207A
:1022E000FEF773FDE94803887222D0215C20FEF7D7
:1022F0006CFDE64803883A22D0216420FEF765FD94
:10230000E24803882022D0216C20FEF75EFDDF48E2
:1023100003882B22D0217420FEF757FDDB48038869
:102320002C22D0217C20FEF750FDD84803882D2296
:10233000D0218420FEF749FDD44803882022D021F3
:102340008C20FEF742FDD14803886F22D0219420D3
:10235000FEF73BFDCD4803886E22D0219C20FEF77E
:1023600034FDCA4803886C22D021A420FEF72DFD3D
:10237000C64803887922D021AC20FEF726FDC34849
:1023800003882D22C0211420FEF71FFDBF480388BB
:102390002022C0211C20FEF718FDBC4803884E22D5
:1023A000C0212420FEF711FDB84803886F22C02108
:1023B0002C20FEF70AFDB54803887222C021342084
:1023C000FEF703FDB14803886D22C0213C20FEF7D3
:1023D000FCFCAE4803886122C0214420FEF7F5FCD6
:1023E000AA4803886C22C0214C20FEF7EEFCA748C7
:1023F00003883A22C0215420FEF7E7FCA348038853
:102400002022C0215C20FEF7E0FCA04803882B229C
:10241000C0216420FEF7D9FC9C4803882C22C021EF
:102420006C20FEF7D2FC994803882D22C02174202D
:10243000FEF7CBFC954803882C22C0217C20FEF7B8
:10244000C4FC924803882A22C0218420FEF7BDFCE8
:102450008E4803882022C0218C20FEF7B6FC8B48D2
:1024600003886F22C0219420FEF7AFFC87480388C1
:102470006E22C0219C20FEF7A8FC844803886C22B1
:10248000C021A420FEF7A1FC804803887922C02146
:10249000AC20FEF79AFC7D4803882D22B021142041
:1024A000FEF793FC794803882022B0211C20FEF718
:1024B0008CFC764803884522B0212420FEF785FC59
:1024C000724803887822B0212C20FEF77EFC6F48EA
:1024D00003887022B0213420FEF777FC6B48038814
:1024E0006522B0213C20FEF770FC68480388722208
:1024F000B0214420FEF769FC644803887422B021AF
:102500004C20FEF762FC614803883A22B021542037
:10251000FEF75BFC5D4803882022B0215C20FEF7BB
:1025200054FC5A4803882B22B0216420FEF74DFC4E
:10253000564803882C22B0216C20FEF746FC5348F5
:1025400003882D22B0217420FEF73FFC4F480388FA
:102550002C22B0217C20FEF738FC4C4803882A222C
:10256000B0218420FEF731FC484803882C22B0219A
:102570008C20FEF72AFC454803882522B0219420B0
:10258000FEF723FC414803882022B0219C20FEF75F
:102590001CFC3E4803886F22B021A420FEF715FCE6
:1025A0003A4803886E22B021AC20FEF70EFC374873
:1025B00003886C22B021B420FEF707FC334803885F
:1025C0007922B021BC20FEF700FC304803882C2281
:1025D000B021C420FEF7F9FB2C4803883222A02149
:1025E0006420FEF7F2FB294803882022A0216C20FA
:1025F000FEF7EBFB254803886F22A0217420FEF72D
:10260000E4FB224803887022A0217C20FEF7DDFB3A
:102610001E4803886522A0218420FEF7D6FB1B48B4
:1026200003887222A0218C20FEF7CFFB1748038875
:102630006122A0219420FEF7C8FB1448038874226D
:10264000A0219C20FEF7C1FB104803886F22A02127
:10265000A420FEF7BAFB0D4803887222A021AC200B
:10266000FEF7B3FB094803887322A021B420FEF7CC
:10267000ACFB064803882D2288211420FEF7A5FB19
:1026800002480388202288211C2001E070000020DD
:10269000FEF79BFBFE4803884B2288212420FEF78F
:1026A00094FBFB480388652288212C20FEF78DFBD4
:1026B000F7480388792288213420FEF786FBF44806
:1026C00003883A2288213C20FEF77FFBF0480388EC
:1026D000202288214420FEF778FBED4803883C2225
:1026E00088214C20FEF771FBE94803883E228821AF
:1026F0005420FEF76AFBE6480388202288215C20EC
:10270000FEF763FBE24803886D2288216420FEF710
:102710005CFBDF4803886F2288216C20FEF755FBA5
:10272000DB480388762288217420FEF74EFBD848C8
:102730000388652288217C20FEF747FBD448038864
:10274000202288218420FEF740FBD1480388702294
:1027500088218C20FEF739FBCD4803886C22882124
:102760009420FEF732FBCA480388612288219C200E
:10277000FEF72BFBC648038879228821A420FEF7A8
:1027800024FBC348038865228821AC20FEF71DFB8B
:10279000BF48038872228821B420FEF716FBBC488C
:1027A00003885E2278214C20FEF70FFBB84803888F
:1027B000202278215420FEF708FBB54803887322B5
:1027C00078215C20FEF701FBB14803887422782150
:1027D0006420FEF7FAFAAE4803886F2278216C2055
:1027E000FEF7F3FAAA480388702278217420FEF7D6
:1027F000ECFAA7480388202278217C20FEF7E5FA2E
:10280000A3480388352278218420FEF7DEFAA04809
:102810000388202278218C20FEF7D7FA9C48038871
:10282000732278219420FEF7D0FA99480388652214
:1028300078219C20FEF7C9FA954803886322782105
:10284000A420FEF7C2FA924803886F227821AC20B8
:10285000FEF7BBFA8E4803886E227821B420FEF77B
:10286000B4FA8B48038864227821BC20FEF7ADFAC5
:102870008748038873227821C420FEF7A6FA84488B
:102880000388762268214C20FEF79FFA804803884F
:10289000202268215420FEF798FA7D48038864229C
:1028A00068215C20FEF791FA794803886922682143
:1028B0006420FEF78AFA76480388732268216C2028
:1028C000FEF783FA72480388702268217420FEF7AD
:1028D0007CFA6F4803886C2268217C20FEF775FA29
:1028E0006B480388612268218420FEF76EFA6848ED
:1028F0000388792268218C20FEF767FA64480388F0
:10290000202268219420FEF760FA61480388312272
:1029100068219C20FEF759FA5D48038873226821DC
:10292000A420FEF752FA5A48038874226821AC208A
:10293000FEF74BFA5648038820226821B420FEF7A0
:1029400044FA5348038864226821BC20FEF73DFA0C
:102950004F48038869226821C420FEF736FA4C48A4
:10296000038867226821CC20FEF72FFA48480388A5
:1029700069226821D420FEF728FA4548038874228A
:102980006821DC20FEF721FA414803882D225021DE
:102990001420FEF71AFA3E480388202250211C20FA
:1029A000FEF713FA3A4803884B2250212420FEF701
:1029B0000CFA37480388652250212C20FEF705FACF
:1029C00033480388792250213420FEF7FEF930483D
:1029D0000388622250213C20FEF7F7F92C48038837
:1029E0006F2250214420FEF7F0F929480388612224
:1029F00050214C20FEF7E9F9254803887222502126
:102A00005420FEF7E2F922480388642250215C201A
:102A1000FEF7DBF91E4803883A2250216420FEF7B6
:102A2000D4F91B480388202250216C20FEF7CDF9F1
:102A300017480388302250217420FEF7C6F9144845
:102A400003882D2250217C20FEF7BFF9104803880F
:102A5000392250218420FEF7B8F90D48038820223E
:102A600050218C20FEF7B1F90948038869225021D2
:102A70009420FEF7AAF9064803886E2250219C2074
:102A8000FEF7A3F90248038870225021A42001E038
:102A900070000020FEF799F9F7480388752250214D
:102AA000AC20FEF792F9F448038874225021B42038
:102AB000FEF78BF9F048038820225021BC20FEF756
:102AC00084F9ED48038861225021C420FEF77DF986
:102AD000E94803886E225021CC20FEF776F9E648BB
:102AE000038873225021D420FEF76FF9E24803884F
:102AF000452240212420FEF768F9DF4803886E2232
:102B000040212C20FEF761F9DB4803887422402124
:102B10003420FEF75AF9D8480388652240213C202A
:102B2000FEF753F9D4480388722240214420FEF76F
:102B30004CF9D1480388202240214C20FEF745F96A
:102B4000CD4803886F2240215420FEF73EF9CA4841
:102B50000388722240215C20FEF737F9C6480388BB
:102B6000202240216420FEF730F9C34803882F2239
:102B700040216C20FEF729F9BF480388202240211C
:102B80007420FEF722F9BC480388642240217C208F
:102B9000FEF71BF9B8480388652240218420FEF720
:102BA00014F9B5480388732240218C20FEF70DF9F3
:102BB000B1480388742240219420FEF706F9AE48FC
:102BC0000388722240219C20FEF7FFF8AA48038860
:102BD0006F224021A420FEF7F8F8A7480388792245
:102BE0004021AC20FEF7F1F8A348038820224021C1
:102BF000B420FEF7EAF8A048038862224021BC20F6
:102C0000FEF7E3F89C4803886C224021C420FEF7BD
:102C1000DCF8994803886F224021CC20FEF7D5F8D4
:102C20009548038863224021D420FEF7CEF89248CD
:102C300003886B224021DC20FEF7C7F88E4803880A
:102C40005B2228212E20FEF7C0F88B4803883C2207
:102C500028213620FEF7B9F8874803883A22282130
:102C60003E20FEF7B2F884480388422228214620FD
:102C7000FEF7ABF880480388612228214E20FEF73A
:102C8000A4F87D480388632228215620FEF79DF88A
:102C9000794803886B2228215E20FEF796F8764853
:102CA00003885D2228216620FEF78FF8724803888A
:102CB0005B2228218220FEF788F86F4803883E2295
:102CC00028218A20FEF781F86B4803883A222821C0
:102CD0009220FEF77AF868480388532228219A2028
:102CE000FEF773F86448038874222821A220FEF7B7
:102CF0006CF86148038861222821AA20FEF765F854
:102D00005D48038872222821B220FEF75EF85A48F7
:102D1000038874222821BA20FEF757F85648038802
:102D20005D222821C220FEF750F810BD2DE9FE4F8C
:102D300006460C4615469A46DDF830B0002E16DAE7
:102D4000BAF1000F07D0A9B2A0B24B4A13882D22C6
:102D5000FEF73BF809E049480088A9B20090A0B20C
:102D6000454A13882D22FDF73DFF76420834304650
:102D7000FEF7C8FB071E01DB384600E07842A0F1F1
:102D800001093AE0BBF1000F03D05F2002902D1F34
:102D900017E0484602F089FB07463A460B460020FA
:102DA000374901F03DFCCDE9000102F04FFB96FBF5
:102DB000F0F00A2190FBF1F201FB12003030C0B2BA
:102DC0000290BAF1000F07D0A9B2A0B22A4A138824
:102DD000029AFDF7FAFF09E028480088A9B200909E
:102DE000A0B2254A1388029AFDF7FCFEBBF1000F42
:102DF00000D02D1DA9F101090834B9F1000FC1DA85
:102E00002046BDE8FE8FF8B506460C4615461B4821
:102E10000088A9B20090A0B2174A13882022FDF7BB
:102E2000E1FE083436B1012E0FD0022E18D0032E49
:102E300033D127E011480088A9B20090A0B20E4A11
:102E400013882B22FDF7CEFE27E00C480088A9B29C
:102E50000090A0B2084A13882D22FDF7C3FE1CE0A3
:102E600006480088A9B20090A0B2034A13887822CD
:102E7000FDF7B8FE11E00000700000207200002095
:102E800000002440FE480088A9B20090A0B2FD4A8C
:102E900013882522FDF7A6FE00BF00BF0834F848BE
:102EA0000088A9B20090A0B2F64A13882022FDF74C
:102EB00099FE04F10800F8BD38B504460D46F24805
:102EC000006802281BDA002003462A4621460090AB
:102ED000EE480068FFF72AFF04462A462146EC48E0
:102EE0000068FFF790FF0446002003462A4621466B
:102EF0000090E8480068FFF719FF044641E0E04809
:102F00000088A9B20090A0B2DE4A13882822FDF7FB
:102F100069FE0834002003462A4621460090DB481B
:102F20000068FFF703FF04462A462146D848006898
:102F3000FFF769FF0446002003462A462146009019
:102F4000D5480068FFF7F2FE0446CD480088A9B2D4
:102F50000090A0B2CB4A13882922FDF743FE083423
:102F60002A462146CD480068FFF74DFF0446002061
:102F700003462A4621460090C6480068FFF7D6FE61
:102F80000446C748046038BD38B514245020F023E7
:102F90001A46002100904FF6FF70FDF749FD2046CC
:102FA000B8490B8853224FF48C71FDF70EFF04F1E2
:102FB0000800B4490B8863224FF48C71FDF705FFBC
:102FC00004F11000AF490B886F224FF48C71FDF7AC
:102FD000FCFE04F11800AB490B8872224FF48C718F
:102FE000FDF7F3FE04F12000A6490B8865224FF49B
:102FF0008C71FDF7EAFE04F12800A2490B883A2201
:103000004FF48C71FDF7E1FE002001234FF48C7228
:1030100004F138010090A3480068FFF787FE0446DA
:1030200004F1080188B297490B8853224FF48C7140
:10303000FDF7CBFE04F1100188B292490B886B2298
:103040004FF48C71FDF7C1FE04F1180188B28D496F
:103050000B8869224FF48C71FDF7B7FE04F1200153
:1030600088B288490B886C224FF48C71FDF7ADFE55
:1030700004F1280188B283490B886C224FF48C71CB
:10308000FDF7A3FE04F1300188B27E490B883A2295
:103090004FF48C71FDF799FE002001234FF48C72E0
:1030A00004F14001009080480068FFF73FFE0446AD
:1030B00001250BE0102101FB054188B24FF4784354
:1030C00002224FF48C71FDF70AFF6D1C77480068EF
:1030D0008542EFDD38BD38B57548006801282FD12D
:1030E000102000907348008883B27348008881B232
:1030F00010224FF6FF70FDF79BFC70480068C0F18E
:10310000F0006C490968884210DD6A480068103098
:10311000684908600A46128891B2674A128890B2DC
:10312000584A13880122FDF7DAFE47E0742061490E
:10313000086000205E4908600120614908603DE0A8
:103140005B480068401C002838D110200090594886
:10315000008883B25848008881B210224FF6FF7071
:10316000FDF766FC53480068F02810DA5148006803
:103170001030504908600A46128891B24E4A1288AF
:1031800090B2404A13880122FDF7A9FE16E04DA136
:103190000220FDF72BFB74204649086000204449BB
:1031A000086001F055F84C4800684C490860002060
:1031B0004B4908604B490860FDF7F5F93F48006846
:1031C00098B1202000903D480068C0F1F00083B223
:1031D00033480088444C2488001B82B2424800884F
:1031E00081B24FF6FF70FDF723FC34480068C0F150
:1031F000F0013D480068FFF75FFE38BD08B51020BC
:103200006423F022002100904FF6FF70FDF710FCC0
:103210003649098888B21B490B8800226421FDF7D2
:103220005EFE08BD08B560200023F022194600901C
:103230004FF6FF70FDF7FCFB124803884122502136
:103240004620FDF7C2FD0F4803886E2250214E2014
:10325000FDF7BBFD0B480388732250215620FDF774
:10326000B4FD08480388772250215E20FDF7ADFDAC
:1032700004480388652250216620FDF7A6FD37E04B
:103280007200002070000020340000205800002050
:1032900064000020600000205C0000206800002026
:1032A0007C000020380000203C000020400000206E
:1032B0005000002088000020840000202C00002006
:1032C0005400002020526F636B6574206D69737326
:1032D00065642E2E2E0000008C000020900000203F
:1032E00080000020480000207800002074000020AA
:1032F000FE480388722250216E20FDF766FDFB48D0
:1033000003883A2250217620FDF75FFD0120034615
:10331000502286210090F6480068FFF707FDF34829
:1033200003885B2228213220FDF74FFDEF480388F8
:103330005E2228213A20FDF748FDEC4803883A2216
:1033400028214220FDF741FDE84803885322282127
:103350004A20FDF73AFDE5480388742228215220CF
:10336000FDF733FDE14803886F2228215A20FDF73D
:103370002CFDDE480388702228216220FDF725FD00
:10338000DA4803885D2228216A20FDF71EFDD74810
:1033900003885B2228218620FDF717FDD348038888
:1033A000762228218E20FDF710FDD04803883A228E
:1033B00028219620FDF709FDCC48038848222821C2
:1033C0009E20FDF702FDC948038869222821A62016
:1033D000FDF7FBFCC54803886E222821AC20FDF7D1
:1033E000F4FCC248038874222821B420FDF7EDFCC8
:1033F000BE4803885D222821BC20FDF7E6FC08BDFD
:1034000008B5FEF735F9B94803884722FC21552055
:10341000FDF7DBFCB54803886122FC215D20FDF748
:10342000D4FCB24803886D22FC216520FDF7CDFC59
:10343000AE4803886522FC216D20FDF7C6FCAB4831
:1034400003882022FC217520FDF7BFFCA7480388D4
:103450004F22FC217D20FDF7B8FCA448038876228A
:10346000FC218520FDF7B1FCA04803886522FC21E2
:103470008D20FDF7AAFC9D4803887222FC2195202F
:10348000FDF7A3FC9B49096849002931BF2904DCE9
:10349000984909684900293100E0BF2188B200231A
:1034A0007622D221FDF791FC1420BE2302462D2165
:1034B00000904FF47840FDF7BBFA1420BE2302467B
:1034C000412100904FF6E070FDF7B2FA1420BE23C0
:1034D00028225521009085480088FDF7A9FA14207C
:1034E000BE2346227D2100904FF4FC60FDF7A0FA38
:1034F00000234622AA212920FDF767FC002343224E
:10350000AA213D20FDF761FC00234122AA21512080
:10351000FDF75BFC00235322AA217520FDF755FC23
:1035200000235322AA217D20FDF74FFC00235322C4
:10353000AA21B720FDF749FC00235322AA21BF206E
:10354000FDF743FC00235322AA21C720FDF73DFCD1
:1035500066480388592278213220FDF736FC6348FB
:1035600003886F2278213A20FDF72FFC5F480388FB
:10357000752278214220FDF728FC5C4803887222DE
:1035800078214A20FDF721FC584803882022782121
:103590005220FDF71AFC55480388462278215A200C
:1035A000FDF713FC51480388692278216220FDF75A
:1035B0000CFC4E4803886E2278216A20FDF705FC3A
:1035C0004A480388612278217220FDF7FEFB4748B4
:1035D00003886C2278217A20FDF7F7FB43480388A3
:1035E000202278218220FDF7F0FB404803885322F7
:1035F00078218A20FDF7E9FB3C4803886322782183
:103600009220FDF7E2FB394803886F2278219A2047
:10361000FDF7DBFB3548038872227821A220FDF7F5
:10362000D4FB3248038865227821AA20FDF7CDFB20
:103630002E4803883A227821B220FDF7C6FB0020ED
:1036400001237822C22100902A480068FFF76EFB10
:1036500026480388502211464220FDF7B6FB234836
:1036600003886C2250214A20FDF7AFFB1F480388D6
:10367000612250215220FDF7A8FB1C4803887922C3
:1036800050215A20FDF7A1FB1848038865225021DC
:103690006220FDF79AFB15480388722250216A20A8
:1036A000FDF793FB11480388202250217220FDF77B
:1036B0008CFB0E480388522250217A20FDF785FBAF
:1036C0000A480388612250218220FDF77EFB0748CB
:1036D00003886E2250218A20FDF777FB0348038878
:1036E0006B2250219220FDF770FB05E07000002056
:1036F0006C00002038000020A14803883A225021A5
:103700009A20FDF762FB9F480068032807DA9C486F
:10371000038846225021AA20FDF757FB42E0994832
:103720000068062807DA9648038845225021AA2017
:10373000FDF74BFB36E0934800680A2807DA90480B
:10374000038844225021AA20FDF73FFB2AE08D4840
:1037500000680F2807DA8A48038843225021AA20EC
:10376000FDF733FB1EE087480068142807DA844819
:10377000038842225021AA20FDF727FB12E081484E
:1037800000681E2807DA7E48038841225021AA20BB
:10379000FDF71BFB06E07A48038853225021AA203C
:1037A000FDF713FB77480068282806DB7448038878
:1037B00053225021B220FDF708FB724800684B28C5
:1037C00006DB6F48038853225021BA20FDF7FDFA2B
:1037D0006B4803885B2228213220FDF7F6FA6848FF
:1037E00003883C2228213A20FDF7EFFA6448038839
:1037F0003A2228214220FDF7E8FA61480388522244
:1038000028214A20FDF7E1FA5D4803886522282136
:103810005220FDF7DAFA5A480388742228215A20E8
:10382000FDF7D3FA56480388722228216220FDF75B
:10383000CCFA53480388792228216A20FDF7C5FA7B
:103840004F4803885D2228217220FDF7BEFA4C48BC
:1038500003885B2228218A20FDF7B7FA48480388AD
:103860003E2228219220FDF7B0FA454803883A22EB
:1038700028219A20FDF7A9FA4148038842222821ED
:10388000A220FDF7A2FA3E48038861222821AA203F
:10389000FDF79BFA3A48038863222821B220FDF7FE
:1038A00094FA374803886B222821BA20FDF78DFA55
:1038B000334803885D222821C220FDF786FA08BD1F
:1038C00038B531480068FDF731FE0446601C08B980
:1038D000002038BD2DA10220FCF788FF204600F013
:1038E00065F800F0B5FC2E480460602000902D487B
:1038F000008881B25023F0224FF6FF70FDF798F850
:1039000004F13001CAB22749098888B21C490B88E2
:103910005021FDF75AFA0120DBE738B52248047838
:103920004FF47843532214217020FDF74EFA4FF4E0
:103930007843542214217820FDF747FA4FF4784356
:103940004F2214218020FDF740FA4FF47843502293
:1039500014218820FDF739FA00BF1348017804F1DB
:10396000C8008142F9DB10490C701020142320227A
:10397000702100904FF6FF70FDF75AF838BD000037
:1039800070000020380000206C0000202048696E84
:103990007420646973706C617965643A200000007A
:1039A000980000208C000020280000202DE9F8431A
:1039B000044647A000680090002C04DA45A10220CC
:1039C000FCF714FF64422046FDF79CFD051E01DB59
:1039D000284600E06842A0F101091DE0484601F0D8
:1039E00064FD07463A460B4600203B4900F018FEAE
:1039F000054601F02BFD94FBF0F00A2190FBF1F25B
:103A000001FB12003030C0B28DF800006946022080
:103A1000FCF7ECFEA9F10109B9F1000FDEDABDE80F
:103A2000F88310B504462DA10220FCF7DFFE34B167
:103A3000012C09D0022C0CD0032C14D10EE028A1AB
:103A40000220FCF7D3FE0EE022A10220FCF7CEFEFE
:103A500009E024A10220FCF7C9FE04E022A1022013
:103A6000FCF7C4FE00BF00BF1CA10220FCF7BEFE95
:103A700010BD10B51D48006802280CDA1C4800680B
:103A8000FFF794FF1B480068FFF7CBFF1A48006858
:103A9000FFF78CFF1BE019A10220FCF7A7FE1448DA
:103AA0000068FFF783FF13480068FFF7BAFF144868
:103AB0000068FFF77BFF13A10220FCF797FE124876
:103AC0000068FFF7AEFF0C480068FFF76FFF10BDFE
:103AD000300000002D000000000024402000000005
:103AE0002B000000780000002500000034000020BA
:103AF0005800002064000020600000202800000022
:103B00005C000020290000006800002010B5FE487D
:103B1000006828B10020FC49086000F0AAFB19E009
:103B2000FA480068401EF9490860F9A10220FCF734
:103B30005DFEF6480068FFF739FFF448006800288A
:103B400006DCFCF781FC0220F6490860012010BD6C
:103B500000F08FFB0020FAE710B5F34800680B284F
:103B60007ED30120F1490870F14800687C2807D114
:103B7000F0A10220FCF73AFE00F0F7FB012010BD97
:103B8000E848006801286CD1EE480068EE490968F1
:103B9000884267DAE648006873287DD00CDC6C2820
:103BA0007BD004DC692829D06B2826D178E07028E6
:103BB0000BD07228F9D13AE074286FD075286ED0F6
:103BC0007A2850D07D28F0D1E7E00021DF48026854
:103BD0000068401CDD4B1860DD4840F82210D949D0
:103BE000098888B2DB490B8830225021FDF7EDF8B7
:103BF000D44800680830D3490860E7E00121D34881
:103C000002680068401CD14B1860D14840F822106F
:103C1000CC49098888B2CF490B8831225021FDF761
:103C2000D4F8C84800680830C6490860CEE00222CF
:103C3000C64801680068401CC44B1860C44840F87E
:103C40002120C049098888B2C2490B8832225021FC
:103C5000FDF7BBF8BB4800680830BA490860B5E01A
:103C6000DAE0CDE0B3E00321B84802680068401C08
:103C7000B64B1860B64840F82210B249098888B29D
:103C8000B4490B8833225021FDF79FF8AD480068F6
:103C90000830AC49086099E01BE04CE032E063E09A
:103CA0000421AA4802680068401CA84B1860A84874
:103CB00040F82210A349098888B2A6490B8834220B
:103CC0005021FDF782F89F48006808309D49086040
:103CD0007CE005229D4801680068401C9B4B1860F1
:103CE0009B4840F821209749098888B299490B8858
:103CF00035225021FDF769F8924800680830914953
:103D0000086063E00621914802680068401C8F4B00
:103D100018608F4840F822108A49098888B28D4976
:103D20000B8836225021FDF750F88648006808308D
:103D3000844908604AE00722844801680068401C02
:103D4000824B1860824840F821207E49098888B259
:103D500080490B8837225021FDF737F879480068F1
:103D600008307849086031E0082178480268006826
:103D7000401C764B1860764840F82210714909883B
:103D800088B274490B8838225021FDF71EF86D481F
:103D9000006808306B49086018E009216B48026828
:103DA0000068401C694B1860694840F8221065495A
:103DB000098888B267490B8839225021FDF705F838
:103DC0006048006808305F49086000BF1DE058483F
:103DD0000068E02819D160480068604908606048C0
:103DE000006808385C49096888420ADC5D48006858
:103DF000083859490968884203DD01205A4908609A
:103E000003E04FF0FF305849086000204649086041
:103E100047490860454908700020B0E610B5FCF736
:103E200078FB68B151480068401E002803D44F4811
:103E30000068401E00E000204C490860FDF724FCAB
:103E4000FCF774FB68B149480068401C022803DC99
:103E500046480068401C00E0022044490860FDF725
:103E600013FCFCF76AFB68B14148006828B90120DF
:103E70003F490860FDF7B9FF04E000203C490860B5
:103E8000FDF702FCFCF74BFB68B1012025490860F7
:103E900064203849086038A10220FCF7A7FC3348A9
:103EA0000068FFF783FD10BD10B5FCF746FB80B13D
:103EB0002948006814280CDD27480068001F26499F
:103EC000086031A10220FCF791FC23480068FFF74D
:103ED0006DFDFCF724FB80B11F480068C8280CDA90
:103EE0001D480068001D1C4908602CA10220FCF739
:103EF0007DFC19480068FFF759FDFCF717FB08B176
:103F00002B4857E073E000004C00002040000020E8
:103F10002054696D656F75742E2E2E204C69666570
:103F20003A200000300000201C000020200000206B
:103F3000180000202047616D65205265736574216B
:103F4000200000009000002094000020800000204D
:103F500098000020700000207400002084000020E1
:103F6000780000207C000020500000203400002059
:103F7000440000202C0000202044696666696375B7
:103F80006C74793A2000000020506C6179657220D1
:103F9000676F206C6566743A2000000020506C61E9
:103FA00079657220676F2072696768743A20000033
:103FB000480000200068D0B97A480068002816DD63
:103FC000FFF77EFC98B178480068401C764908608D
:103FD0007648006808307649086001207549086015
:103FE00070480068401E6F490860FEF7CDFF10BDA5
:103FF00010B5FCF7A2FA58B16F480068142807DD25
:1040000000F084F9FDF734FB6CA10220FCF7EEFB15
:10401000FCF785FA68B168480068C82809DA00F03A
:10402000A4F94FF0FF306849086068A10220FCF74E
:10403000DDFB10BD2DE9F04788B04FF0000A66485F
:104040000068FDF75FFA81466448006800287DD06B
:1040500063A10220FCF7CAFBB9F1000F34DB012495
:104060002FE0A9EB040001F020FA02460B46CDE94F
:10407000000100205D4900F0D3FA07468846611E22
:104080005B4A52F8210001F010FA3A464346CDE966
:10409000020101F05DFACDE90401504601F005FA94
:1040A0000546DDE9042300F0BDFFCDE9060101F07E
:1040B000CDF98246611E4E4A52F82100FFF776FC88
:1040C000641C4C45CDDD3AE04AA10220FCF78EFB92
:1040D000012430E0C9F10001081B01F0E6F90546B2
:1040E0002A460B460020414900F09AFACDE9020128
:1040F000611E3F4A52F8210001F0D7F9CDE90001D5
:10410000DDE9022301F024FA07468846504601F013
:10411000CCF93A464346CDE9040101F03FFCCDE934
:10412000060101F093F98246611E314A52F82100DE
:10413000FFF73CFC641CC9F100008442CADD26483C
:104140000068824516D12C48016800E026E02B4823
:104150000068401C0844284908600120284908607C
:10416000642019490860FCF728FA26A10220FCF710
:104170003DFB10E000F06CF80C4800680C4908604A
:104180000020094908600B490860FCF70CFA20A1DF
:104190000220FCF72BFB00201049086008B0BDE8A6
:1041A000F08700003C000020800000208C000020F0
:1041B00090000020480000207400002052657374B5
:1041C000617274202D3E00002C0000205265736542
:1041D00074202D3E200000006C00002054000020C0
:1041E0002052656365697665643A200000002440CA
:1041F000980000202D00000038000020340000202E
:104200004C0000202028436F7272656374290000FF
:10421000202857726F6E67290000000010B5FCF768
:10422000DDF9FCF797F9FCF71FF9FCF7FBF84FF401
:1042300016512420FCF77EFAFCF72AFB0520FCF738
:1042400095FEFCF7EAFEFCF748FFFDF75BF810BDB2
:1042500010B5002404E000205B4941F82400641CF0
:10426000062CF8DB59480068012801D1FEF7DAFF77
:1042700010BD10B5FDF786F955A10220FCF7B6FA7E
:10428000FFF7F7FB55A10220FCF7B0FA564800688B
:10429000FFF78CFB54480068002803DB8620534955
:1042A000086002E08E20514908605048006850497B
:1042B00008604D480068FDF725F9041E01DB204623
:1042C00000E060424949096801EBC00049490860C3
:1042D000FFF7BEFF002048490860FBF779FF502137
:1042E00090FBF1F201FB1200143044490860FDF725
:1042F000BFF9FEF749FEFEF7EEFEFEF77FFFFEF781
:1043000091FFFCF755F9FCF75DF910BD10B564207D
:104310003B49086001202D490860002039490860A8
:1043200002203949086003203849086000203849D4
:10433000086038490860FFF78BFF012036490860A4
:104340000020364908603649086070203549086009
:1043500035490860742035490860002034490860F8
:10436000344908603449087010BD10B50020244954
:104370000860164908603149086022490860022037
:104380002149086003202149086000202049086075
:1043900020490860FFF75CFF01201F4908600020EA
:1043A0001E4908601E49086070201E4908601E49A9
:1043B000086074201D49086000201D4908601D49DF
:1043C00008601D49087010BD9800002030000020D2
:1043D000204571756174696F6E3A200020457870D0
:1043E00065637465643A20006C0000208C00002036
:1043F0009000002094000020800000207800002021
:104400002C000020380000203C000020400000204C
:1044100044000020480000204C00002050000020F4
:104420005400002074000020840000208800002038
:104430001C00002018000020200000203400002074
:104440000B4910B5A1F17C020A4CC2E937123721A1
:1044500006E000EB104342F82130074B00FB03401D
:104460000B1EA1F10101F4DC10BD0120E8E7000002
:104470002C010020E119D666CD0D01007047704770
:10448000704710B500F008F8006810BD10B504467C
:1044900000F002F8046010BD00487047940100204D
:1044A00000487047940100207546FFF7F9FFAE46BB
:1044B00005006946534620F00700854618B020B530
:1044C000FBF79EFFBDE820404FF000064FF00007CD
:1044D0004FF000084FF0000B21F00701AC46ACE8AC
:1044E000C009ACE8C009ACE8C009ACE8C0098D4619
:1044F00070470446AFF300802046FBF762FE70472A
:1045000001491820ABBEFEE726000200490050EA30
:10451000C12018BF04204A0D18BF40F0010040F22E
:10452000FF72B2EB515F08BF40F00200012808BFE4
:10453000052070472DE9F0414F1E00EBC7010446EE
:10454000D1E9000115461E4637F006020DD02A4675
:10455000334600F0FDFF7F1E04EBC703D3E90023C1
:1045600000F060FD37F00602F1D1022F25D0042FB4
:1045700013D0062F18BFBDE8F0812A46334600F05D
:10458000E7FFD4E90A2300F04DFD2A46334600F048
:10459000DFFFD4E9082300F045FD2A46334600F04A
:1045A000D7FFD4E9062300F03DFD2A46334600F04C
:1045B000CFFFD4E9042300F035FD2A46334600F04E
:1045C000C7FFD4E9022300F02DFD2A46334600F050
:1045D000BFFFD4E90023BDE8F04100F023BD000097
:1045E000002213461046014900F0D8BD0000F03FFC
:1045F00000F018BD002213461046114600F0CEBD53
:1046000040F2013200204FF0E04101F086BD000091
:10461000024A0020110701F080BD000001FDFFFFEC
:104620002DE9F04D16460F4694B01C4621F000418E
:1046300023F00042002814BF4FF0010C4FF0000C93
:104640000CEB470CFE4B0CEB03054FEA630C654586
:104650002BD3350018BF012505EB44051D44F94B4C
:104660009D4222D3F84B52EA060C02D09F4205D15C
:1046700048B914B000201946BDE8F08D002808BFE5
:104680004FF0000C01D04FF0010C0CEB470313F579
:10469000001F0AD8002E14BF4FF0010C4FF0000C81
:1046A0000CEB440313F5001F07D914B03246234620
:1046B0003946BDE8F04DFFF79BBFDFF890834FF020
:1046C000000A002FB8BF424523DAE14B9A42A8BF47
:1046D0004FF0020A1DDADC4B93421ADCDD4B03EB90
:1046E0002253142B08DDC3F1340C26FA0CF303FA21
:1046F0000CFCB4450DD108E05EB9C3F1140C22FAEC
:104700000CF303FA0CFC944503D103F00103C3F14D
:10471000020A51EA00031BD1002C19DA002F18BF3E
:10472000BAF1020F02D0BAF1010F07D00220FFF751
:10473000ADFE14B0BDE8F04DFFF752BF0220FFF709
:10474000A5FEFFF74DFF14B081F00041BDE8F08DEC
:10475000330070D1424525D107F1804212F5801215
:1047600001BF00280020B84914B008BFBDE8F08D93
:10477000B548884207DC002CA1BF1846214614B07A
:10478000BDE8F08D07E0002CBFBF184684F0004163
:1047900014B0BDE8F08DB0497944D1E9000114B0FE
:1047A000BDE8F08DDFF8A0C262452AD1002C24DAE2
:1047B00039B1414517D1002804BF002002461CD161
:1047C00006E040B10220FFF761FEFFF719FF0A463D
:1047D000394600F0D7BA9D4A394614B0002062F33A
:1047E0001E01BDE8F08D08DA14B03B46BDE8F04D7F
:1047F00002460020614600F0D1BC14B03946BDE845
:10480000F08D414517DAB4F1804F0CD0A4F100537C
:10481000B3F1FF530FD13B1E0DDB14B01946BDE8B9
:10482000F04D00F0D9BB3B4614B00246BDE8F04D58
:10483000194600F08DBE050027F000433AD1E1B1E2
:10484000414537D1002F06DD002CA1BF0020414695
:1048500014B0BDE8F08D002F01DD002C1FDB002F10
:1048600016DA002C14DBBAF1010F4FF0000014BF70
:1048700076497A4914B0BDE8F08DBAF1020F18BF3D
:10488000002F0CD0BAF1010F09D1002F07DA0BE08D
:10489000002FB8BF002C0DDABAF1010F04D00020B0
:1048A00014B00146BDE8F08D14B000204FF0004177
:1048B000BDE8F08D4FF0010808EBE77CCDF814C09F
:1048C0005CEA0A0C0DD0DFF898C162457EDDDFF8A6
:1048D00094C1654B624512DD8B420ADB002C18DB6C
:1048E00023E00120FFF7D2FD14B0BDE8F04DFFF743
:1048F00081BE554A8A4202DC002C0ADC15E099424E
:1049000002DA002C11DA04E04F4B994219DD002C39
:104910000BDD0220FFF7BAFDFFF772FE4B4A14B021
:1049200061F31E021146BDE8F08D0220FFF7AEFDD7
:10493000FFF76EFE444A14B061F31E021146BDE853
:10494000F08D0022394601F029F807460D466FF038
:10495000010201F0E2FB4FF05532444B00F02CFF16
:104960003A462B4600F0F4FD0022414B00F024FFB4
:1049700080468B463A462B461046194600F0E8FD25
:1049800042465B4600F0E4FD88460E904FF0C04280
:10499000384B3846294600F0DBFD83460091364A05
:1049A000344B41460E9800F0D3FD80460191334AC6
:1049B000334B3846294600F0CBFD4246019B00F0C0
:1049C000EDFF0D4602460B460C9000E011E0584604
:1049D000009900F027FB002788465A463846009B7E
:1049E00000F0DCFF2B460C9A00F0E6FE024600F0D9
:1049F00079B90020B1F5801F07DA3522284619461B
:104A000001F08BFB05466FF0340000EB2150A0F263
:104A1000FF300190C1F3130040F07F6141F040513D
:104A2000029118498842D8BF4FF0000B35DD164976
:104A30008142C8BF4FF0010B2FDC4FF0000B25E087
:104A4000FFFF1F00FFFF0F000000F03F0000F07F9E
:104A50000000404301FCFFFFA42100000000F0FF24
:104A60000000E0410000F043FFFFEF3F5555D53F08
:104A70000000E03F4715F73FFE822B6544DF5DF8FD
:104A80000BAE543E8E9803007AB60B000198401C82
:104A900001900298A0F580100290FF480299784496
:104AA00000EBCB000991D0E9002328460B9312922A
:104AB00000F074FF00910A9028460B9B129A099906
:104AC00000F0B0FA02460B460020F44900F066FB05
:104AD000CDE90C010B46024600990A9800F038FD1A
:104AE0000690EF48884600277844029900681090A5
:104AF0004FF0005040EA610000EB8B4000F50021D0
:104B000002910B9B129A109800F048FF2A46099BCD
:104B100000F052FE3A46434600F01AFD089112900A
:104B200038464146029B109A00F012FD009B0A9AFB
:104B300000F042FE089B129A00F030FFDDE90C23E2
:104B400000F006FD0B91069A129043461046194656
:104B500000F0FEFC05460246D2480B460A910621AB
:104B60007844FFF7E7FC0A9B2A460891029010461A
:104B7000194600F0EDFC089B029A00F0E9FC05469E
:104B80000991434638461946069A00F04BFA0B9BAA
:104B9000129A00F0DDFC2A46099B00F043FACDE9A9
:104BA00008013A4643461046194600F0D1FC0A91E6
:104BB0000022BD4B009000F035FADDE9082300F03B
:104BC00031FA0D463A46B84B384600F0E7FE0A9BEC
:104BD000009A00F0E3FEDDE9082300F0EDFDCDE9E9
:104BE00008013A462B461046414600F0B1FC0091C0
:104BF0000A90DDE908014346069A00F0A9FC0690F8
:104C000088462B463A460B99129800F0A1FC434681
:104C1000069A00F007FA80460B4602460D9100996D
:104C20000A9800F0FFF900200F460546009B0A9AFB
:104C300000F0B4FE42460D9B00F0BEFD88460E908B
:104C40004FF06042994B2846394600F081FC0291B2
:104C50000090974A954B41460E9800F079FC8046AB
:104C60000391944A944B2846394600F071FC424621
:104C7000039B00F0D7F9914A7A4402EBCB03D3E9C6
:104C8000002300F0CFF905460791019800F00DFCD4
:104C90000C9003912A46079B0299009800F0C2F9F4
:104CA000874A7A4402EBCB03D3E90023934601936E
:104CB00000F0B8F9039B0C9A00F0B4F9002788467D
:104CC0003846039B0C9A00F069FE5A46019B00F09F
:104CD00065FE029B009A00F061FE2A46079B00F0E9
:104CE0006BFD02460020069005986C4DAAF1010369
:104CF000184301D1734D069000200B4604903046B6
:104D0000214600F025FC82468B4623463046194654
:104D1000049A00F043FE3A46434600F019FC52461E
:104D20005B4600F07FF906468A463A4643462146EE
:104D3000049800F00DFC04460F463246534600F03E
:104D400071F9614A8B46914221DBABEB020353EAD6
:104D5000000210D122463B4600F020FE804603911F
:104D60005A4A5B4B3046514600F05CF94246039B81
:104D700000F0ECFC27D20220FFF788FBFFF740FC95
:104D80000A46294614B062F31E01BDE8F08D514B6E
:104D90002BF000429A4216D34F4A0BEB020353EA20
:104DA000000208D122463B4600F0F8FD3246534649
:104DB00000F0CCFC07D80220FFF768FBFFF728FCC7
:104DC0000A462946DEE72BF000404449444A01EBFD
:104DD00020514FF00008824223DA481C4FF4801122
:104DE00021FA00F058443F4AC0F30A517A443E4B3E
:104DF000A1F2FF31CB4020EA0303C0F3130040F4DB
:104E0000801CC1F1140012682CFA00F8BBF1000FED
:104E1000B8BFC8F100082046394600F0BFFD04467F
:104E20000F4622463B463046514600F0FBF84FF015
:104E3000000B5A462D4B5846039100F089FB009118
:104E40000A902B4A2B4B5846039900F081FB0491A2
:104E5000029022463B465846039900F09FFD324699
:104E6000534600F0A9FC244A244B00F071FB049B3C
:104E7000029A00F0D7F807468A46009B0A9A00F08B
:104E8000D1F804460E46009B0A9A00F087FD3A4688
:104E9000534600F091FC33E0161E00000000F03F86
:104EA000541E0000841D00000000084009C7EE3FAA
:104EB000FD033ADCF5015B14E02F3EBE5C1C0000F4
:104EC000221C00000000F0BF00009040FE822B6515
:104ED0004715973C00CC904000346F3F01FCFFFF2A
:104EE0000000E03F501B0000FFFF0F00432EE63F95
:104EF000396CA80C615C20BEEF39FAFE422EE63F09
:104F00000746224633460F911046194600F020FB13
:104F1000834602462E488A460B4605217844FFF711
:104F200009FB5A46534600F013FB2246334600F075
:104F300043FC82468B463A46204631460F9B00F0A2
:104F400007FB3A460F9B00F06DF80F460A900022CF
:104F50004FF080435046594600F020FD03910090E9
:104F600052465B462046314600F0F2FA039B009A17
:104F700000F014F93B460A9A00F010FD2246334631
:104F800000F00CFD0022134B00F016FC0E46044608
:104F900001EB08510815002810DC42462046314636
:104FA00001F0BBF8FFF7B2FA042808BFFFF730FBA7
:104FB00042462046314601F0B0F8044606980B46BA
:104FC00014B022462946BDE8F04D00F0C1BA0000F9
:104FD000F81900000000F03F2DE9F04106460F46A9
:104FE00000F0F6FB04000D4618BF0120284320F016
:104FF0000040C0F17F6000F1E040C00F0ED0301CD7
:1050000018BF0120384320F00040C0F17F6000F15C
:10501000E040C00F04BF0120FFF738FA20462946C0
:10502000BDE8F08110B591EA030F48BF83F000435B
:1050300000F1BC84841A71EB030C05D2121943EB06
:105040000C03001B61EB0C01DFF824E14FEA115463
:10505000A4EB135C1EEA430F18BF9EEA445F73D0B3
:1050600023EA0E03DCF1200E21EA045143F48013FD
:1050700032D322FA0CFE10EB0E0023FA0CFE41EBA9
:105080000E01CCF1200E03FA0EFE10EB0E0051F1D2
:105090000001B1F5801FCCF1200E32D201EB04519A
:1050A00012FA0EF2BDE8104058BF7047401C38BFDE
:1050B0005FEA420218BF7047002814BF20F00100C9
:1050C00041F100014FEA410313F5001F38BF70475B
:1050D000A1F1C04100F034BB012A43EB0302ACF163
:1050E000200CDCF11F0E32BF4FF0000E23FA0CF340
:1050F00010EB030041EB0451B4EB115FD0D0A1EBF6
:10510000045101F5801149085FEA300001EB0451B8
:105110000ED350F1000038BF12FA0EFE08D1BDE8E0
:105120001040C9E7401C38BF5FEA4202CAD1C3E75A
:10513000BDE810404FEA410313F5001F38BF704728
:10514000A1F1C04100F0FCBA9EEA445F08D011EA28
:105150005E0FBDE8104004BF01F000410020704721
:10516000BDE8104070B500F09DFA00BF64FBBE3E84
:105170000000E0FF02494FF0000000F09CBF00BFBC
:105180000000F87F491058BFC1F140415B1058BF83
:10519000C3F140438B42EFF3008070472DE9C041DB
:1051A00030B4DFF8A0C23CEA111418BF3CEA131473
:1051B00000F0EC8081EA03051CEA111444EAD5747E
:1051C00018BF1CEA131500F0C780A4EB05044FF0CC
:1051D000004545EAC12145EAC32341EA505143EA6B
:1051E000525304F17F74994204F500344FEAC02011
:1051F0004FEAC22208BF904200F09C804FEA13653C
:105200000FF24016765D4FEA134506FB05F7C7F12E
:10521000807706FB07F74FEAD737A7FB036876428C
:10522000C8F58038A7FB06CE38BFA8F1010807FBF8
:1052300008E64FF0000EA6FB028CE6FB03CEDCF185
:10524000000CCEF1004E38BFAEF1010EA6FB0C589B
:105250004FF000074FF00005E6FB0E87A1FB08C6E4
:10526000A0FB07CE16EB0E0645F10005E1FB076536
:1052700015F1E04E7EBFA4F580345FEA46066D412D
:1052800016F1800745F100054FEA17274FEA066639
:1052900047EA0567A6F1DE46B6F1805F4FEA1525BD
:1052A0001FD9384624F0010C05EBC471BCF1FE6F28
:1052B00001EB0C1102D8F0BCBDE8008124425CBFB8
:1052C00001F5801E9EEAC47F02D4F0BCBDE80081D7
:1052D000244238D4F0BCA1F1C041BDE8004100F047
:1052E0002FBA4FEAD22242EA43524FEAD323A7FB16
:1052F00002864FEAD02040EA415007FB03661EEACF
:105300000E0F4FEAD12105FB026658BFA6EB0056EF
:10531000B6EB00564FEA520E4EEAC37E18EB0E0E65
:1053200056EB530EBDD518EB02085E417F1C55F1BC
:105330000005B6E74FF480154FF000074FF0000668
:105340004FF00008ADE7F0BC4FF0000001F1C041A4
:1053500001F00041BDE8008111EA0C1F0CEA1315B1
:1053600000D00CE013EA0C1F00F025804FF0000085
:10537000F0BC81EA030101F00041BDE80081F0BC0E
:10538000BDE8004181EA030100F0DAB9F0BCBDE8F4
:10539000004170B500F086F9097EFC3E00F007B8C8
:1053A00081EA03014FF0000001F00041704781EAFB
:1053B000030100F0C5B9F0BCBDE800414FF00000AA
:1053C00021497047FFFDFBF9F7F5F4F2F0EEEDEB44
:1053D000E9E8E6E4E3E1E0DEDDDBDAD8D7D5D4D3F3
:1053E000D1D0CFCDCCCBCAC8C7C6C5C4C2C1C0BF3F
:1053F000BEBDBCBBBAB9B8B7B6B5B4B3B2B1B0AF45
:10540000AEADACABAAA9A8A8A7A6A5A4A3A3A2A128
:10541000A09F9F9E9D9C9C9B9A99999897979695E3
:1054200095949393929191908F8F8E8E8D8C8C8B7F
:105430008B8A898988888787868585848483838207
:10544000828181800000FF070000F87F4FEA41035E
:105450004FEA5353A3F58063D3F11E03C8BFD3F1C2
:10546000210C0CDD4FF0004242EAC12242EA5052C8
:1054700032FA03FC8CEAE17CACEBE1707047102B54
:10548000C4BF0020704703F5787CBCF1FF3F04D017
:105490006FF0004282EA2100704770B500F002F917
:1054A0004992248000207047F2E710F0004248BF84
:1054B0004042B0FA80F310FA03F10AD0C3F11D03A1
:1054C00003F580634FEA415002EB035202EBD12116
:1054D00070474FF00000704751EA030C17D41CF5D9
:1054E000801F58BFBCF5801F00F10680994218BF8D
:1054F000704708BF9042704707D711F5801F58BF0B
:1055000013F5801F19D499427047894270471CF5E2
:10551000801F08D5BCF5801FF7D58B4218BF704798
:1055200008BF824270474FF4001C1CEB410F38BF8C
:105530001CEB430F01D28B42704770B500F0B2F8FC
:10554000922449004FF000514FF08053FFF71ABEEC
:10555000DFF848C170B51CEA111E1EBF1CEA131506
:105560009EEA0C0F95EA0C0F00F06F8081EA0304AD
:1055700023EA4C134EEAD47E21EA4C1141F4801107
:1055800043F48013AE44A1FB024CA0FB0365AEF1D3
:105590007F7E361955EB0C05A1FB034C4CF1000343
:1055A000A0FB021C16EB0C06654153F100030942F7
:1055B00018BF46F0010613F4007F0BD14FEA033108
:1055C0004FEA0530340341EA155140EA16506FF0B6
:1055D00003020AE04FEAC3214FEAC520F40241EA80
:1055E000555140EA56506FF0020202EB2E4201EB99
:1055F000025585EACE710AD05FEA440C18BF24F048
:10560000004450F1000041F1000120EAD47040F262
:10561000FE7C624500D270BDA84214BF4FF08044AA
:105620004FF04044002E08BF0024BEF1806FA8BF99
:10563000A1F1C041BDE8704080F282804FF00000CF
:1056400001F1C04101F0004170479EEA0C0F0CEAE5
:10565000131518BF95EA0C0F06D04FF0000081EA31
:10566000030E0EF0004170BD00F01CF88900013EF1
:1056700000F007B800F009B84FEA430C5FEA5C5C41
:1056800008D081EA030100F05BB84FEA410C5FEA01
:105690005C5CF6D14FF00000014970470000FF0745
:1056A0000000F87F0EF1020E2EF0030E5EF8046B80
:1056B000364205D4012A43EB030515F5001F12D825
:1056C000012841EB010C1CF5001F0CD80ED14FEA4C
:1056D000D17C15F5001F0CEB4C0C0CF1020C08BF33
:1056E0004CEBD37C04E04FF0080C01E04FEAD37C94
:1056F0000CEB4C0526FA05F606F00706B6F1040C8D
:1057000006D20EEB860CBDE870404CF0010C6047F1
:10571000DFE80CF0090B02024FF000414FF00000EF
:10572000A1F5002170BD19461046012851EB010476
:1057300018BFD4F5001484BF002001F0004170BDF3
:105740000808A0F500114FEA3101704753EA010C37
:1057500017D41CF5801F58BFBCF5801F00F10680D0
:105760008B4218BF704708BF8242704707D713F5B6
:10577000801F58BF11F5801F19D48B4270479B4280
:1057800070471CF5801F08D5BCF5801FF7D59942DE
:1057900018BF704708BF904270474FF4001C1CEBC5
:1057A000430F38BF1CEB410F01D2994270470FB431
:1057B0000CBC03BCFFF7C1BE91EA030F10B581F02A
:1057C00000413FF537AC83F0004300F0EFB8000034
:1057D0002DE9F04101F5801CBCF5001FC0F2C3802B
:1057E0004FEA115C21EA0C510CF1FD0C41F48011DF
:1057F0005FEA5C0C0CF5C07C01D3400049413DA43C
:10580000890241EA905187028E0E0A0CA45D04FBC6
:1058100004F602FB06F6C6F14046A4FB0662F60D4E
:1058200046EA422606FB06F4A4FB01235242C3F1DA
:10583000404338BF5B1EA6FB02420024E6FB032464
:10584000D20B42EA4446A6FB0623A1FB02E2A3FBDD
:1058500007E4A4184FF0000252F10002E3FB0142FA
:105860006442C2F1404E38BFAEF1010EA6FB0423E4
:105870004FF00002E6FB0E32A2FB03464FF000049D
:10588000B61954F10004E2FB0264A1FB06E6A4FB96
:1058900007E816EB08064FF0000858F10008E4FB93
:1058A00001687642C8F1405838BFA8F10108A2FB50
:1058B00006E4A3FB08E52D194FF0000454F10004A1
:1058C000E2FB0854A1FB05E6A7FB04E818EB060879
:1058D0004FF0000656F10006E1FB048618F12005A2
:1058E00056F10006A809A8F11B08B10908F03F0805
:1058F000B8F10A0F40EA86601CD901EB0C51BDE8F3
:10590000F08100BFFCF5EEE8E2DDD8D3CFCBC7C312
:10591000C0BDB9B6B4B1AEACA9A7A5A3A19F9D9BCC
:105920009A9896959392908F8D8C8B89888786858F
:1059300084838281A0FB006800FB01F208EB42082F
:10594000B8EB872807D5341858EB0104D5D5401C8F
:1059500051F10001D1E7341A78EB0104CDD4401E97
:1059600071F10001C9E75FEA4C0C5FEA9C5C0DD164
:1059700005D34FF0000001F00041BDE8F081BDE823
:10598000F04170B5FFF78EFE6DDBFFBEBDE8F04164
:105990004FF00000004970470000F87F10B591EA11
:1059A000030F48BF83F000433FF544AB841A71EB0B
:1059B000030C07D212198CF0004C43EB0C03001BB4
:1059C00061EB0C01DFF8A4E14FEA1154A4EB135C86
:1059D0001EEA430F18BF9EEA445F00F0B08023EA3E
:1059E0006E03524221EA0451C3EB6E0338BF5B1EC3
:1059F000DCF1200E25D322FA0CFE10EB0E0043FA48
:105A00000CFE41EB0E01CCF1200E03FA0EFE10EB62
:105A10000E0051F10001CCF1200E29D412FA0EF241
:105A200001EB0451BDE8104058BF7047401C1CBF3B
:105A3000B2F1004F704700280CBF491C20F0010054
:105A4000704712EB020E43EB030218BF4FF0010E3A
:105A50004EEA4202ACF1200CDCF11E0E54D943FA9E
:105A60000CFE10EB0E0051F1FF31CCF11E0ED5D51E
:105A70000EF1010E12FA0EFE404141EB010101EB65
:105A8000445C5FEA5C5C10D910EBDE7001EB045102
:105A900038BFBEF1004FBDE8104018BF7047002866
:105AA0000CBF491C20F00100704730D24FEAD42CC3
:105AB00011F5001124F400641BD0B1FA81F20B3A05
:105AC000A41AA41ED2F12003914030FA03F3194323
:105AD000904001EBCC71002C01EB0451BDE810406B
